{
  "_format": "hh-sol-artifact-1",
  "contractName": "GasPriceManager",
  "sourceName": "contracts/GasPriceManager.sol",
  "abi": [
    {
      "inputs": [
        {
          "internalType": "address",
          "name": "_agent",
          "type": "address"
        },
        {
          "internalType": "address",
          "name": "_admin",
          "type": "address"
        }
      ],
      "stateMutability": "nonpayable",
      "type": "constructor"
    },
    {
      "inputs": [],
      "name": "admin",
      "outputs": [
        {
          "internalType": "address",
          "name": "",
          "type": "address"
        }
      ],
      "stateMutability": "view",
      "type": "function"
    },
    {
      "inputs": [],
      "name": "agent",
      "outputs": [
        {
          "internalType": "address",
          "name": "",
          "type": "address"
        }
      ],
      "stateMutability": "view",
      "type": "function"
    },
    {
      "inputs": [],
      "name": "gasPrice",
      "outputs": [
        {
          "internalType": "uint256",
          "name": "",
          "type": "uint256"
        }
      ],
      "stateMutability": "view",
      "type": "function"
    },
    {
      "inputs": [
        {
          "internalType": "uint256",
          "name": "_newGasPrice",
          "type": "uint256"
        }
      ],
      "name": "updateGasPrice",
      "outputs": [],
      "stateMutability": "nonpayable",
      "type": "function"
    }
  ],
  "bytecode": "0x608060405234801561001057600080fd5b506040516105193803806105198339818101604052810190610032919061011e565b81600160006101000a81548173ffffffffffffffffffffffffffffffffffffffff021916908373ffffffffffffffffffffffffffffffffffffffff16021790555080600260006101000a81548173ffffffffffffffffffffffffffffffffffffffff021916908373ffffffffffffffffffffffffffffffffffffffff160217905550505061015e565b600080fd5b600073ffffffffffffffffffffffffffffffffffffffff82169050919050565b60006100eb826100c0565b9050919050565b6100fb816100e0565b811461010657600080fd5b50565b600081519050610118816100f2565b92915050565b60008060408385031215610135576101346100bb565b5b600061014385828601610109565b925050602061015485828601610109565b9150509250929050565b6103ac8061016d6000396000f3fe608060405234801561001057600080fd5b506004361061004c5760003560e01c8063204cff8114610051578063f5ff5c761461006d578063f851a4401461008b578063fe173b97146100a9575b600080fd5b61006b60048036038101906100669190610246565b6100c7565b005b6100756101b9565b60405161008291906102b4565b60405180910390f35b6100936101df565b6040516100a091906102b4565b60405180910390f35b6100b1610205565b6040516100be91906102de565b60405180910390f35b600160009054906101000a900473ffffffffffffffffffffffffffffffffffffffff1673ffffffffffffffffffffffffffffffffffffffff163373ffffffffffffffffffffffffffffffffffffffff1614806101705750600260009054906101000a900473ffffffffffffffffffffffffffffffffffffffff1673ffffffffffffffffffffffffffffffffffffffff163373ffffffffffffffffffffffffffffffffffffffff16145b6101af576040517f08c379a00000000000000000000000000000000000000000000000000000000081526004016101a690610356565b60405180910390fd5b8060008190555050565b600160009054906101000a900473ffffffffffffffffffffffffffffffffffffffff1681565b600260009054906101000a900473ffffffffffffffffffffffffffffffffffffffff1681565b60005481565b600080fd5b6000819050919050565b61022381610210565b811461022e57600080fd5b50565b6000813590506102408161021a565b92915050565b60006020828403121561025c5761025b61020b565b5b600061026a84828501610231565b91505092915050565b600073ffffffffffffffffffffffffffffffffffffffff82169050919050565b600061029e82610273565b9050919050565b6102ae81610293565b82525050565b60006020820190506102c960008301846102a5565b92915050565b6102d881610210565b82525050565b60006020820190506102f360008301846102cf565b92915050565b600082825260208201905092915050565b7f4e6f7420617574686f72697a6564000000000000000000000000000000000000600082015250565b6000610340600e836102f9565b915061034b8261030a565b602082019050919050565b6000602082019050818103600083015261036f81610333565b905091905056fea2646970667358221220c102bba0f8be6a380dca39047d80bb081d6bac210da8dbbae1427526995c5e6964736f6c634300081b0033",
  "linkReferences": {},
  "deployedLinkReferences": {}
}