{
  "_format": "hh-sol-artifact-1",
  "contractName": "GasFeeRecoveryMultiToken",
  "sourceName": "contracts/MultiTokenGasFeeHandler.sol",
  "abi": [
    {
      "inputs": [
        {
          "internalType": "address",
          "name": "_ethUsdPriceFeed",
          "type": "address"
        },
        {
          "internalType": "address",
          "name": "_wldTokenAddress",
          "type": "address"
        },
        {
          "internalType": "address",
          "name": "_wldPriceFeedAddress",
          "type": "address"
        }
      ],
      "stateMutability": "nonpayable",
      "type": "constructor"
    },
    {
      "inputs": [
        {
          "internalType": "address",
          "name": "tokenAddress",
          "type": "address"
        },
        {
          "internalType": "address",
          "name": "priceFeedAddress",
          "type": "address"
        }
      ],
      "name": "addSupportedToken",
      "outputs": [],
      "stateMutability": "nonpayable",
      "type": "function"
    },
    {
      "inputs": [],
      "name": "getLatestEthPrice",
      "outputs": [
        {
          "internalType": "int256",
          "name": "",
          "type": "int256"
        }
      ],
      "stateMutability": "view",
      "type": "function"
    },
    {
      "inputs": [
        {
          "internalType": "address",
          "name": "token",
          "type": "address"
        }
      ],
      "name": "getLatestTokenPrice",
      "outputs": [
        {
          "internalType": "int256",
          "name": "",
          "type": "int256"
        }
      ],
      "stateMutability": "view",
      "type": "function"
    },
    {
      "inputs": [],
      "name": "owner",
      "outputs": [
        {
          "internalType": "address",
          "name": "",
          "type": "address"
        }
      ],
      "stateMutability": "view",
      "type": "function"
    },
    {
      "inputs": [
        {
          "internalType": "address",
          "name": "",
          "type": "address"
        }
      ],
      "name": "supportedTokens",
      "outputs": [
        {
          "internalType": "contract IERC20",
          "name": "",
          "type": "address"
        }
      ],
      "stateMutability": "view",
      "type": "function"
    },
    {
      "inputs": [
        {
          "internalType": "address",
          "name": "",
          "type": "address"
        }
      ],
      "name": "tokenUsdPriceFeeds",
      "outputs": [
        {
          "internalType": "contract AggregatorV3Interface",
          "name": "",
          "type": "address"
        }
      ],
      "stateMutability": "view",
      "type": "function"
    },
    {
      "inputs": [
        {
          "internalType": "address",
          "name": "token",
          "type": "address"
        },
        {
          "internalType": "uint256",
          "name": "amount",
          "type": "uint256"
        }
      ],
      "name": "withdrawToken",
      "outputs": [],
      "stateMutability": "nonpayable",
      "type": "function"
    }
  ],
  "bytecode": "0x608060405234801561001057600080fd5b50604051610fbd380380610fbd8339818101604052810190610032919061021a565b826000806101000a81548173ffffffffffffffffffffffffffffffffffffffff021916908373ffffffffffffffffffffffffffffffffffffffff16021790555033600360006101000a81548173ffffffffffffffffffffffffffffffffffffffff021916908373ffffffffffffffffffffffffffffffffffffffff16021790555081600260008473ffffffffffffffffffffffffffffffffffffffff1673ffffffffffffffffffffffffffffffffffffffff16815260200190815260200160002060006101000a81548173ffffffffffffffffffffffffffffffffffffffff021916908373ffffffffffffffffffffffffffffffffffffffff16021790555080600160008473ffffffffffffffffffffffffffffffffffffffff1673ffffffffffffffffffffffffffffffffffffffff16815260200190815260200160002060006101000a81548173ffffffffffffffffffffffffffffffffffffffff021916908373ffffffffffffffffffffffffffffffffffffffff16021790555050505061026d565b600080fd5b600073ffffffffffffffffffffffffffffffffffffffff82169050919050565b60006101e7826101bc565b9050919050565b6101f7816101dc565b811461020257600080fd5b50565b600081519050610214816101ee565b92915050565b600080600060608486031215610233576102326101b7565b5b600061024186828701610205565b935050602061025286828701610205565b925050604061026386828701610205565b9150509250925092565b610d418061027c6000396000f3fe608060405234801561001057600080fd5b506004361061007d5760003560e01c806368c4ac261161005b57806368c4ac26146101005780638da5cb5b146101305780639e281a981461014e578063c2b7be161461016a5761007d565b806330c0b9ec1461008257806352c550b3146100a0578063628a9c96146100d0575b600080fd5b61008a610186565b60405161009791906107da565b60405180910390f35b6100ba60048036038101906100b59190610858565b610225565b6040516100c791906107da565b60405180910390f35b6100ea60048036038101906100e59190610858565b6103d3565b6040516100f791906108e4565b60405180910390f35b61011a60048036038101906101159190610858565b610406565b6040516101279190610920565b60405180910390f35b610138610439565b604051610145919061094a565b60405180910390f35b6101686004803603810190610163919061099b565b61045f565b005b610184600480360381019061017f91906109db565b610631565b005b60008060008054906101000a900473ffffffffffffffffffffffffffffffffffffffff1673ffffffffffffffffffffffffffffffffffffffff1663feaf968c6040518163ffffffff1660e01b815260040160a060405180830381865afa1580156101f4573d6000803e3d6000fd5b505050506040513d601f19601f820116820180604052508101906102189190610a9e565b5050509150508091505090565b60008073ffffffffffffffffffffffffffffffffffffffff16600260008473ffffffffffffffffffffffffffffffffffffffff1673ffffffffffffffffffffffffffffffffffffffff16815260200190815260200160002060009054906101000a900473ffffffffffffffffffffffffffffffffffffffff1673ffffffffffffffffffffffffffffffffffffffff16036102f4576040517f08c379a00000000000000000000000000000000000000000000000000000000081526004016102eb90610b76565b60405180910390fd5b6000600160008473ffffffffffffffffffffffffffffffffffffffff1673ffffffffffffffffffffffffffffffffffffffff16815260200190815260200160002060009054906101000a900473ffffffffffffffffffffffffffffffffffffffff1673ffffffffffffffffffffffffffffffffffffffff1663feaf968c6040518163ffffffff1660e01b815260040160a060405180830381865afa1580156103a0573d6000803e3d6000fd5b505050506040513d601f19601f820116820180604052508101906103c49190610a9e565b50505091505080915050919050565b60016020528060005260406000206000915054906101000a900473ffffffffffffffffffffffffffffffffffffffff1681565b60026020528060005260406000206000915054906101000a900473ffffffffffffffffffffffffffffffffffffffff1681565b600360009054906101000a900473ffffffffffffffffffffffffffffffffffffffff1681565b600360009054906101000a900473ffffffffffffffffffffffffffffffffffffffff1673ffffffffffffffffffffffffffffffffffffffff163373ffffffffffffffffffffffffffffffffffffffff16146104ef576040517f08c379a00000000000000000000000000000000000000000000000000000000081526004016104e690610be2565b60405180910390fd5b600260008373ffffffffffffffffffffffffffffffffffffffff1673ffffffffffffffffffffffffffffffffffffffff16815260200190815260200160002060009054906101000a900473ffffffffffffffffffffffffffffffffffffffff1673ffffffffffffffffffffffffffffffffffffffff1663a9059cbb600360009054906101000a900473ffffffffffffffffffffffffffffffffffffffff16836040518363ffffffff1660e01b81526004016105ab929190610c11565b6020604051808303816000875af11580156105ca573d6000803e3d6000fd5b505050506040513d601f19601f820116820180604052508101906105ee9190610c72565b61062d576040517f08c379a000000000000000000000000000000000000000000000000000000000815260040161062490610ceb565b60405180910390fd5b5050565b600360009054906101000a900473ffffffffffffffffffffffffffffffffffffffff1673ffffffffffffffffffffffffffffffffffffffff163373ffffffffffffffffffffffffffffffffffffffff16146106c1576040517f08c379a00000000000000000000000000000000000000000000000000000000081526004016106b890610be2565b60405180910390fd5b81600260008473ffffffffffffffffffffffffffffffffffffffff1673ffffffffffffffffffffffffffffffffffffffff16815260200190815260200160002060006101000a81548173ffffffffffffffffffffffffffffffffffffffff021916908373ffffffffffffffffffffffffffffffffffffffff16021790555080600160008473ffffffffffffffffffffffffffffffffffffffff1673ffffffffffffffffffffffffffffffffffffffff16815260200190815260200160002060006101000a81548173ffffffffffffffffffffffffffffffffffffffff021916908373ffffffffffffffffffffffffffffffffffffffff1602179055505050565b6000819050919050565b6107d4816107c1565b82525050565b60006020820190506107ef60008301846107cb565b92915050565b600080fd5b600073ffffffffffffffffffffffffffffffffffffffff82169050919050565b6000610825826107fa565b9050919050565b6108358161081a565b811461084057600080fd5b50565b6000813590506108528161082c565b92915050565b60006020828403121561086e5761086d6107f5565b5b600061087c84828501610843565b91505092915050565b6000819050919050565b60006108aa6108a56108a0846107fa565b610885565b6107fa565b9050919050565b60006108bc8261088f565b9050919050565b60006108ce826108b1565b9050919050565b6108de816108c3565b82525050565b60006020820190506108f960008301846108d5565b92915050565b600061090a826108b1565b9050919050565b61091a816108ff565b82525050565b60006020820190506109356000830184610911565b92915050565b6109448161081a565b82525050565b600060208201905061095f600083018461093b565b92915050565b6000819050919050565b61097881610965565b811461098357600080fd5b50565b6000813590506109958161096f565b92915050565b600080604083850312156109b2576109b16107f5565b5b60006109c085828601610843565b92505060206109d185828601610986565b9150509250929050565b600080604083850312156109f2576109f16107f5565b5b6000610a0085828601610843565b9250506020610a1185828601610843565b9150509250929050565b600069ffffffffffffffffffff82169050919050565b610a3a81610a1b565b8114610a4557600080fd5b50565b600081519050610a5781610a31565b92915050565b610a66816107c1565b8114610a7157600080fd5b50565b600081519050610a8381610a5d565b92915050565b600081519050610a988161096f565b92915050565b600080600080600060a08688031215610aba57610ab96107f5565b5b6000610ac888828901610a48565b9550506020610ad988828901610a74565b9450506040610aea88828901610a89565b9350506060610afb88828901610a89565b9250506080610b0c88828901610a48565b9150509295509295909350565b600082825260208201905092915050565b7f546f6b656e206e6f7420737570706f7274656400000000000000000000000000600082015250565b6000610b60601383610b19565b9150610b6b82610b2a565b602082019050919050565b60006020820190508181036000830152610b8f81610b53565b9050919050565b7f4e6f7420746865206f776e657200000000000000000000000000000000000000600082015250565b6000610bcc600d83610b19565b9150610bd782610b96565b602082019050919050565b60006020820190508181036000830152610bfb81610bbf565b9050919050565b610c0b81610965565b82525050565b6000604082019050610c26600083018561093b565b610c336020830184610c02565b9392505050565b60008115159050919050565b610c4f81610c3a565b8114610c5a57600080fd5b50565b600081519050610c6c81610c46565b92915050565b600060208284031215610c8857610c876107f5565b5b6000610c9684828501610c5d565b91505092915050565b7f546f6b656e207769746864726177616c206661696c6564000000000000000000600082015250565b6000610cd5601783610b19565b9150610ce082610c9f565b602082019050919050565b60006020820190508181036000830152610d0481610cc8565b905091905056fea2646970667358221220b763079eeee89bbb421854d8606ff7082629dc44dd17ec43f06ecad94a18202764736f6c634300081b0033",
  "linkReferences": {},
  "deployedLinkReferences": {}
}